:020000040800F2
:10000000A0060020490100085F14000849140008F8
:100010005D1400081F080008C1200008000000004F
:10002000000000000000000000000000B5170008FC
:10003000D509000800000000D91400088518000840
:100040006301000863010008630100086301000800
:1000500063010008630100086301000863010008F0
:1000600063010008630100086301000863010008E0
:1000700063010008630100086301000863010008D0
:10008000630100086301000863010008000000002C
:1000900000000000000000000000000063010008F4
:1000A00063010008630100086301000863010008A0
:1000B000451900080D1A00086301000863010008D3
:1000C0006301000863010008630100086301000880
:1000D00063010008851C0008DD1D0008630100089D
:1000E000350E000863010008630100086301000881
:1000F0006301000863010008000000000000000028
:100100000000000000000000630100086301000817
:10011000630100086301000863010008630100082F
:10012000630100086301000863010008630100081F
:1001300063010008DFF80CD000F02EFB00480047F8
:10014000212A0008A00600200648804706480047EC
:10015000FEE7FEE7FEE7FEE7FEE7FEE7FEE7FEE777
:10016000FEE7FEE78918000835010008D2B201E079
:1001700000F8012B491EFBD270470022F6E710B5AC
:1001800013460A4604461946FFF7F0FF204610BD05
:1001900030B505462A460B4612F8010B13F8014B01
:1001A00008B1A042F8D01CB1002802D06D1CF1E7C4
:1001B000284630BD10B5044604E00B7800F8013B3A
:1001C00003B1491C521EF8D2204610BD10B50022C2
:1001D00000E0521C835C8C5CA34201D1002BF8D15F
:1001E000D8B2E1B2401A10BD034611F8012B00F855
:1001F000012B002AF9D1184670472DE9F04D81EA0C
:10020000030404F0004B21F0004514464FF0000AAF
:1002100023F0004150EA050220D054EA01021DD02B
:10022000C5F30A570246C5F31303C1F31300C1F324
:100230000A5640F4801543F48013A7EB0608101B00
:10024000D64608F2FD3873EB050002D308F1010829
:1002500001E092185B41B8F1000F03DA002001467B
:10026000BDE8F08D00204FF48011064684460EE074
:10027000171B73EB050705D3121B63EB050306433E
:100280004CEA010C49084FEA300092185B4150EAF1
:100290000107EDD152EA030012D082EA040083EA9A
:1002A0000501084305D0101BAB4106D201220023F3
:1002B00006E000224FF0004302E06FF0010253100D
:1002C0001AEB06004CEB085110EB0A0041EB0B0156
:1002D000BDE8F04D00F0BAB80EB540F233410291DE
:1002E0000021CDE900110A460B4600F0BEF803B02C
:1002F00000BD00F0004230F000400AD0C10D01F511
:100300006071C0F3160042EA0151C2084007114370
:10031000704700200146704701F0004330B421F0DF
:10032000004150EA010206D00A0DA2F56072C1F345
:100330001301002A02DC30BC00207047440F44EA5D
:10034000C104C100E01830BC00EBC25000F047B857
:1003500030B50B46014600202022012409E021FA95
:1003600002F59D4205D303FA02F5491B04FA02F592
:100370002844151EA2F10102F1DC30BD2DE9F05F29
:100380000546002092469B46884606468146402404
:100390001BE0284641464746224600F01EFA5346D7
:1003A0005A46C01A914110D311461846224600F011
:1003B00005FA2D1A67EB01084F462246012000215D
:1003C00000F0FCF917EB00094E41201EA4F10104D6
:1003D000DFDC484631462A464346BDE8F09F002907
:1003E000A8BF7047401C490008BF20F001007047BB
:1003F00010B4B0FA80FC00FA0CF050EA010404BF1B
:1004000010BC704749B1CCF1200421FA04F411FA70
:100410000CF118BF012121430843A3EB0C01CB1DB4
:100420004FEA00614FEA102042BF002010BC704725
:1004300000EBC35010440029A4BF10BC7047401CFF
:10044000490008BF20F0010010BC704710B5141E11
:1004500073F1000408DA401C41F1000192185B417D
:100460001A4301D120F0010010BD2DE9F04D924654
:100470009B4611B1B1FA81F202E0B0FA80F220326B
:10048000904600F09BF904460F4640EA0A0041EA14
:100490000B0153465A46084313D0114653EA010054
:1004A00019D0C8F14002504600F097F905460E46B3
:1004B00050465946424600F081F9084305D00120D4
:1004C00004E020463946BDE8F08D0020054346EAA9
:1004D000E0762C4337430A986305E40AA0EB080052
:1004E0000022FD0A44EA47540A3002D500200146A2
:1004F000E9E7010510196941DDE90845001969417D
:10050000BDE8F04DA2E72DE9FE4F804681EA0300E9
:10051000C00F0C46009021F0004123F00045B8EBDD
:100520000200A94105D24046214690461C460B4692
:10053000024623F00040104347D0270DC7F30A00BE
:10054000C3F30A510290401A019040286BDAC3F3BA
:10055000130040F4801B0098924620B10023D2EB98
:10056000030A63EB0B0B01985946C0F14002504659
:1005700000F024F906460D4650465946019A00F00F
:100580003CF910EB08006141002487EA115284EA2B
:10059000E7731A4340D0009A62B3019A012A4FEAE6
:1005A000075215DC001B61EB02014FF0004202EA2A
:1005B0000752CDE90042001C41F5801132462B461E
:1005C000FFF753FF03B0BDE8F08F40462146F9E73F
:1005D000001B61EB0201001C41F5801300185B4118
:1005E0002018A2F5001747EB030140EAD570B619B1
:1005F0006D4111E06D084FEA360645EAC0754FEAD5
:100600000752001B61EB0201001C41F580114908F3
:100610004FEA30000019514132462B4603B0BDE885
:10062000F04FFFF713BF0098012240000023D0EBEA
:10063000020263EBE073009821464FEAE074B8EBE6
:10064000000061EB0401E9E783F000435BE781F020
:10065000004158E72DE9FE4F81EA030404F000440D
:1006600021F0004100944FF0000B23F0004350EACA
:1006700001045ED052EA03045BD0C3F30A54C1F311
:100680000A552C44A4F2F3340194A0FB0254C1F3A4
:10069000130141F48011C3F3130343F4801301FBEE
:1006A000024400FB034E840A970A44EA815447EA55
:1006B0008357A4FB076802958D0A05FB07854FEA5F
:1006C000932C04FB0C542705029D4FEA065847EA79
:1006D0001637B5EB08056EEB070C870E920E47EA4E
:1006E000811742EA8312A7FB0201B6EB0B0164EB10
:1006F00000042B0D43EA0C335E1844EB1C50DA4621
:100700005146E7FB0201C5F313044FEA0B3343EAFA
:1007100014534FEA0432019C43EA0603A4F10C048B
:100720000294009CCDE900B4FFF79FFE03B0BDE842
:10073000F08F00200146F9E7C1F30A52C1F313011B
:1007400040F2FF3341F480119A4202DA0020014660
:10075000704740F233439A42A2F2334202DC5242E3
:1007600000F03BB800F02AB830B5041E71F1000467
:1007700004DB4FF00044404264EB0101141E73F1AE
:10078000000405DB1C464FF00043524263EB0403B8
:10079000994208BF904230BD064C074D06E0E06824
:1007A00040F0010394E8070098471034AC42F6D3B8
:1007B000FFF7C4FC902C0008B02C0008202A04DBB2
:1007C000203A00FA02F1002070479140C2F1200364
:1007D00020FA03F3194390407047202A04DB203AA3
:1007E00021FA02F00021704721FA02F3D040C2F151
:1007F00020029140084319467047202A06DBCB1798
:10080000203A41FA02F043EAE07306E041FA02F3CB
:10081000D040C2F120029140084319467047FEE7DC
:1008200038B58020ADF8000048208DF80300032083
:10083000164D8DF8020000246946284600F08AFC17
:1008400004E0641CE4B2012002F0D6F880212846BE
:1008500000F0D1FC10B1642CF3D30FE0642C0DD266
:10086000002404E0641CE4B2012002F0C5F88021F9
:10087000284600F0C0FC18B1642C04D3002038BD19
:10088000642CEFD3FAE7012038BD000000080140D6
:1008900008B50121042000F039FE8020ADF80000E9
:1008A00010208DF8030003208DF8020069460448EB
:1008B00000F050FC00F06EF8FFF7B2FF08BD00003A
:1008C0000008014070B50024134D04E0641CE4B23C
:1008D000012002F091F88021284600F08CFC08B13C
:1008E000642CF3D3002404E0641CE4B2012002F081
:1008F00083F88021284600F07EFC08B9642CF3D3ED
:10090000282002F079F88021284600F074FC0028A5
:1009100000D0012070BD00000008014070B500202B
:1009200004464006050EFFF7CDFF641C2843E4B2E1
:10093000082CF6D370BD00002DE9FC410D4606469B
:1009400000F028F8FFF76CFF012802D00020BDE876
:10095000FC8100244FEA0D07FFF7E0FF3855641CC7
:10096000E4B2052CF8D39DF800109DF801009DF825
:1009700003300A189DF8020003441A449DF804301D
:100980009A4201D129703070012002F029F801202B
:10099000DDE7000038B58020ADF8000010208DF8AC
:1009A000030003200A4C8DF802006946204600F03F
:1009B000D1FB8021204600F02CFC142002F004F82A
:1009C0008021204600F027FC1E2002F015F838BDDB
:1009D00000080140704701B5009801E0401E0090FA
:1009E0000028FBD108BD4FF0E020016921F004018F
:1009F000016170472DE9F0474FF0FF364FF4FA7A66
:100A00008EB04FF000093546504601F0DDFF00245E
:100A1000DFF88080204F2BE018F8041040460A29A8
:100A200025D00D2923D0691C00D12546011949780C
:100A30000D291CD1621B08EB05016846521CFFF70B
:100A4000B9FB16A16846FFF7C1FB48B114A168467F
:100A5000FFF7BCFB20B116A16846FFF7B7FB08B94A
:100A60004FF0010934216846FFF787FB3546641CC7
:100A70003868401E8442CFDB51460648FFF77DFBB5
:100A8000002038600F48C168491EC1600EB048465A
:100A9000BDE8F08748000020180000204F4B000000
:100AA0006C696E6B206973206275696C64656400A3
:100AB000414C524541445920434F4E4E45435445C5
:100AC000440000001C0000202DE9F0434FF0FF38E7
:100AD0008DB0454624A001F06DF94FF40014204676
:100AE000FFF779FF21A001F065F92046FFF773FFBA
:100AF000214EF068002834D00024DFF88090204F89
:100B000020E019F8041048460A291AD00D2918D0F7
:100B1000691C00D12546011949780A2911D1621BA7
:100B200009EB05016846521CFFF744FB15A1684616
:100B3000FFF74CFB002814D034216846FFF71DFB5B
:100B40004546641C3868401E8442DADB4FF4FA7173
:100B50000A48FFF712FB00203860F068401EF06082
:100B600001200DB0BDE8F0832B2B2B0041542B430B
:100B7000574A41503F0D0A001C0000204800002049
:100B8000180000204E6F2041500000002DE9F04178
:100B90004FF000084FF0FF358EB0284644461D4EFA
:100BA0001D4F27E0315D0A2923D00D2921D0411C9A
:100BB00000D12046311949780A291AD1221A311850
:100BC0006846521CFFF7F6FA14A001F085F9684652
:100BD00001F082F912A001F07FF912A16846FFF737
:100BE000D7FA08B14FF0010834216846FFF7C5FA7B
:100BF0002846641C3968491E8C42D3DB4FF4FA71D5
:100C00000448FFF7BAFA002038600EB04046BDE84D
:100C1000F081000048000020180000205B00000068
:100C20005D0D0A005749464920474F54204950005E
:100C30007FB500240646254624A1FFF7C7FA50B128
:100C40006A46305D212812D0311949787C2908D0B4
:100C5000212906D009E02249002008604860086187
:100C60007FBD303842F825006D1C641CE9E7009810
:100C70001C4C00284FF4007120461AD000F0CBFA2B
:100C800001984FF480610028204615D000F0C3FA87
:100C900002984FF400610028204610D000F0BBFA03
:100CA00003984FF48051002820460BD000F0B3FA8F
:100CB0007FBD00F0AEFAE3E700F0ABFAE8E700F042
:100CC000A8FAEDE700F0A5FA7FBD000057494649B4
:100CD00020444953434F4E4E4543540D0A000000F3
:100CE0001C000020001001402DE9F0412A4C012594
:100CF000206940B929A001F05DF8FFF77BFE642070
:100D0000256101F061FE2069022601280AD124A094
:100D100001F050F8FFF76EFE002837D064202661FE
:100D200001F052FE206902280CD121A001F042F806
:100D3000FFF760FE002829D0032020614FF4FA60FD
:100D400001F042FE2069042703280AD123A001F004
:100D500031F8FFF74FFE002818D06420276101F01A
:100D600033FE6420276101F02FFE206904280AD198
:100D70001EA001F01FF8FFF73DFE48B105202061DD
:100D8000642001F021FE65600120A560BDE8F081CE
:100D900000202661FAE700001C0000202B2B2B000E
:100DA00041542B4349504D55583D300D0A00000029
:100DB00041542B43495053544152543D22544350C3
:100DC000222C223139322E3136382E3133372E3122
:100DD000222C383038300D0A0000000041542B43DB
:100DE00049504D4F44453D310D0A000041542B43BD
:100DF000495053454E440D0A0000000010B5094CFF
:100E0000E16800290DDD0849FFF7EEF94FF4FA71AA
:100E10000548FFF7B2F9054900200860E068401E68
:100E2000E06010BD1C0000204800002018000020D9
:100E300000F0C0BF2DE9F0414FF48056304600F07D
:100E400081F83A4D740288B12046FFF7C4FD31465F
:100E5000284600F0D0F90028F9D02046FFF7BBFD66
:100E6000FFF732FE32490860304656E04FF4005733
:100E7000384600F067F82F4EA8B12046FFF7ABFDCB
:100E80003946284600F0B7F90028F9D02046FFF788
:100E9000A2FD2021304600F0B5F910B1002220213A
:100EA00037E00122FBE74FF48047384600F04AF86C
:100EB000A8B12046FFF78FFD3946284600F09BF980
:100EC0000028F9D02046FFF786FD4021304600F08B
:100ED00099F910B1002240211BE00122FBE74FF4F9
:100EE0000047384600F02EF800281CD02046FFF7B7
:100EF00072FD3946284600F07EF90028F9D02046D8
:100F0000FFF769FD8021304600F07CF948B10022EE
:100F10008021304600F081F93846BDE8F04100F00C
:100F20000BB80122F4E7BDE8F0810000000C01409D
:100F30001C000020001001400149086070470000BB
:100F400014040140064A014600201268044B0A407E
:100F500014331B680B4202D0002A00D001207047D6
:100F60000004014030B51A498379026853B30B6815
:100F700093430B600A1D13680468A343136002794E
:100F80000A441368046823431360114A0832136843
:100F90000468A3431360131D1C680568AC431C6000
:100FA0004479102C05D021440A68006802430A6085
:100FB00030BD11680468214311601968006801435D
:100FC000196030BD0079084401689143016030BD6B
:100FD000000401407FB50121082000F097FA4FF48A
:100FE0007040ADF80C0048208DF80F0003208DF8FC
:100FF0000E0003A92A4800F0ADF80121084600F0D0
:1010000085FA00254FF480508DF804500C2600908E
:101010008DF8056001248DF806406846FFF7A2FFB1
:1010200060038DF8045000908DF805608DF806403F
:101030006846FFF797FFA0038DF8045000908DF8E5
:1010400005608DF806406846FFF78CFFE0038DF8D9
:10105000045000908DF805608DF806406846FFF753
:1010600081FF0C21012000F061F80D21012000F02A
:101070005DF80E21012000F059F80F21012000F049
:1010800055F828208DF808008DF8094004208DF8C7
:101090000A008DF80B4002A800F0E2F97FBD0000C5
:1010A000000C014004490A6822F010020A600A6834
:1010B00002430A607047000000200240034A1168A2
:1010C00001F0380101431160704700000020024028
:1010D0002DE9F0410121102000F018FA012104202F
:1010E00000F014FA0F4CFF2010252080DFF8388024
:1010F000E5700326A6702146404600F02BF8FF213C
:10110000404600F088F84FF4F0572780E570A6704D
:101110002146404600F01EF839464046BDE8F04101
:1011200000F077B8020000200010014010B58A07D7
:1011300021F003040649130F21440F228C689A40C2
:1011400094438C608A68984002438A6010BD000016
:1011500000000140F0B5CA78002502F00F03D20666
:1011600001D58A7813430A784FF00F0E12F0FF0F63
:101170004FF001021CD004680F8802FA05F63740D0
:10118000B74211D14FEA850C0EFA0CF724EA070793
:1011900003FA0CF43C43CF78282F02D0482F02D01A
:1011A00002E0466100E006616D1C082DE4D3046096
:1011B0000C88FF2C1ED944685FF0000606F1080772
:1011C00002FA07F50F882F40AF420FD14FEA860C85
:1011D0000EFA0CF7BC4303FA0CF73C43CF78282FE8
:1011E00000D14561CF78482F00D10561761C082ECB
:1011F000E4D34460F0BD0246002092680A4200D069
:101200000120704702460020D2680A4200D0012027
:10121000704741617047016170470AB101617047D1
:101220004161704708B50121082000F06FF9C02026
:10123000ADF8000010208DF8030003208DF80200A7
:1012400069460248FFF786FF08BD0000000C014018
:1012500038B54020ADF8000048208DF80300032089
:10126000144D8DF8020069462846FFF773FF802170
:101270002846FFF7D0FF052001F0BEFB402128469D
:10128000FFF7B9FF0C4C012811D00120206080210C
:101290002846FFF7BEFF052001F0AEFB10208DF8B9
:1012A000030069462846FFF755FF206838BD002037
:1012B000ECE70000000C014010000020F8B54020D1
:1012C000ADF8000048208DF803000320184E8DF87B
:1012D0000200002469463046FFF73CFF40213046BB
:1012E000FFF799FF00256006040E80213046FFF7C6
:1012F00092FF052001F080FB40213046FFF77BFF85
:10130000012800D00020044380213046FFF781FFF0
:10131000052001F071FB6D1CEDB2082DE3D3102008
:101320008DF8030069463046FFF714FF2046F8BDEC
:10133000000C014038B504464020ADF800001020F4
:101340008DF803000320114D8DF8020069462846F0
:10135000FFF700FF012C14D0002C11D140212846AA
:10136000FFF757FF80212846FFF755FF052001F0C2
:1013700043FB80212846FFF74CFF052001F03CFB92
:1013800038BD40212846FFF746FFEBE7000C01403F
:1013900070B5124E0546002428064FF04001304635
:1013A00002D5FFF738FF01E0FFF733FF6806050EAF
:1013B00080213046FFF72FFF052001F01DFB802123
:1013C0003046FFF726FF052001F016FB641CE4B24F
:1013D000082CE1D3BDE87040FFF73ABF000C014094
:1013E00010B50C4C40212046FFF715FF8021204608
:1013F000FFF711FF052001F0FFFA40212046FFF71B
:1014000008FF052001F0F8FA2046BDE810408021D1
:10141000FFF7FFBE000C014010B50A4C40212046EA
:10142000FFF7F7FE80212046FFF7F5FE052001F0CB
:10143000E3FA40212046FFF7EEFEBDE8104005200C
:1014400001F0DABA000C0140FEE710B500240120DB
:1014500000F006FA00B10124204610BDFEE77047F7
:1014600070B50F23C47801780122F4B1144C2468BC
:10147000457804F4E064C4F5E064240AC4F1040689
:10148000E3408478B5401C402C4301F1E021230166
:1014900081F80034007800F01F018A404009800084
:1014A00000F1E020C0F8002170BD01F01F00824073
:1014B0004809800000F1E020C0F8802170BD0000E4
:1014C0000CED00E002490843024908607047000043
:1014D0000000FA050CED00E070470000044A002906
:1014E000D16901D0014300E08143D1617047000020
:1014F00000100240044A0029116901D0014300E0B4
:10150000814311617047000000100240044A002925
:10151000916901D0014300E081439161704700006F
:1015200000100240044A0029D16801D0014300E0C4
:101530008143D160704700000010024010B500F0F8
:1015400033F84FF48034204600F0C0F800F006F97C
:1015500014490128087023D11020FFF7A3FD0220B1
:10156000FFF7ACFD002000F0A7F8002000F0D2F853
:10157000A01100F0C5F84FF4E011204600F0DAF8B1
:10158000012000F0D1F8392000F076F80028FAD0D8
:10159000022000F0D9F800BF00F086F80828FBD13F
:1015A00010BD0000000000200C48016841F001015E
:1015B000016041680A4A114041600168094A1140CE
:1015C0000160016821F480210160416821F4FE017D
:1015D00041604FF41F01816070470000001002401D
:1015E0000000FFF8FFFFF6FE30B51F494A6812F011
:1015F0000C031E4A03D0042B01D0082B21D002601B
:101600004A680F231A4C03EA1212A35C0268DA40FC
:1016100042604B68072505EA1323E35C22FA03F3D3
:1016200083604B6805EAD323E35CDA40C260496813
:10163000032303EA9131231F595CB2FBF1F10161ED
:1016400030BD4A684B6802F470124FF0020413F484
:10165000803F04EB924202D04B689B0301D5054BBF
:1016600000E0024B5A43CAE70010024000127A0021
:101670003800002000093D000246002053090949B6
:10168000012B0BD0022B0BD0D1F8241002F01F023B
:10169000012393400B4200D0012070470968F5E711
:1016A000096AF3E7001002400248406800F00C00AD
:1016B0007047000000100240034A516821F0F00119
:1016C0000143516070470000001002400B490A6856
:1016D00022F480320A600A6822F480220A60B0F59F
:1016E000803F07D0B0F5802F03D1086840F4A020D8
:1016F00008607047086840F48030F9E70010024045
:10170000034A516821F4E0610143516070470000D1
:101710000010024003494A6822F4605242EAC000C5
:101720004860704700100240014908667047000099
:1017300000004242034A5368084323F47C131843D1
:101740005060704700100240034A516821F00301C5
:1017500001435160704700000010024018B500209E
:101760004FF4A06400903120FFF786FF0099491CD8
:101770000091A14201D00028F5D03120FFF77CFF75
:10178000002800D0012018BD08B501210420FFF772
:10179000BDFE0120ADF8000004208DF803000320F9
:1017A0008DF8020069460248FFF7D4FC08BD00002E
:1017B00000080140704700000CB500212648019147
:1017C0000091026842F4803202604FF4A063026824
:1017D00002F400320092019A521C0192009A12B94E
:1017E000019A9A42F3D10268920333D50121009104
:1017F0001A490A6842F010020A600A6822F00302DD
:101800000A600A6842F002020A6041684160416869
:101810004160416841F480614160416821F47C117C
:101820004160416841F4E8114160016841F0807114
:10183000016001688901FCD5416821F00301416024
:10184000416841F0020141604168C1F38101022910
:10185000FAD10CBD00910CBD0010024000200240E6
:1018600070B505460024FFF7BBFD4620FFF790FD4D
:1018700020B12846FFF78CFD00B10124FFF7CCFD15
:10188000204670BD704700000F4810B5016841F058
:101890000101016041680D4A1140416001680C4A34
:1018A00011400160016821F480210160416821F448
:1018B000FE0141604FF41F018160FFF77DFF054984
:1018C0004FF00060086010BD001002400000FFF8FB
:1018D000FFFFF6FE08ED00E07FB50C46054601214E
:1018E0000846FFF7FBFD4FF08046304600F0AEF8AB
:1018F0000121304600F09CF8ADF800400024ADF81E
:101900000450ADF80640ADF802406946304600F09C
:101910006BF901221146304600F05CF94FF4E060AB
:10192000FFF7D0FD1C208DF80C008DF80D40022033
:101930008DF80E0001208DF80F0003A8FFF790FD31
:101940007FBD000010B501218C07204600F036F95C
:1019500000281BD00121204600F06AF80C480168DD
:10196000491C01600B480068012809D10A48006839
:10197000012805D10948FFF741FA0848FFF758F94F
:101980002046BDE81040002100F055B810BD000011
:1019900028000020200000201C0000203C02002025
:1019A0007FB50C46054601210220FFF797FD164E34
:1019B000304600F04BF80121304600F039F80020A5
:1019C000ADF80450ADF80040ADF80600ADF80200E7
:1019D0006946304600F008F901221146304600F011
:1019E000F9F84FF4C060FFF76DFD1D208DF80C0075
:1019F00001208DF80D0003218DF80E108DF80F00D9
:101A000003A8FFF72DFD7FBD0004004010B5074C73
:101A10000121204600F0D2F8002805D02046BDE87C
:101A20001040012100F004B810BD00000004004087
:101A3000C943018270470029018802D041F00101A9
:101A400001E021F001010180704700004B4910B511
:101A5000884202D10121C41486E0B0F1804F09D040
:101A6000474988420DD101210220FFF743FD0021A3
:101A7000022064E001210846FFF73CFD002101201F
:101A80005DE04049884206D101210420FFF732FD84
:101A90000021042053E03C49884206D1012108205E
:101AA000FFF728FD0021082049E03849884206D187
:101AB00001211020FFF71EFD002110203FE03449D6
:101AC000884206D101212020FFF714FD00212020AB
:101AD00035E03049884202D10121441444E02E49C6
:101AE000884202D10121CC043EE02C49884202D137
:101AF00001210C0538E02A49884202D101214C0518
:101B000032E02849884206D101214020FFF7F2FC4B
:101B10000021402013E02449884206D10121802081
:101B2000FFF7E8FC0021802009E0204988420AD123
:101B3000841501212046FFF7DDFC00212046BDE889
:101B40001040FFF7D7BC1A49884202D101210C048A
:101B50000AE01849884202D101214C0404E01649E8
:101B600088420AD101218C042046FFF7DBFC204685
:101B7000BDE810400021FFF7D5BC10BD002C01408E
:101B80000004004000080040000C0040001000402D
:101B90000014004000340140004C0140005001405E
:101BA0000054014000180040001C0040002000408C
:101BB000004001400044014000480140024600202E
:101BC000138A92890B4202EA010202D0002A00D055
:101BD00001207047002A828901D00A4300E08A432D
:101BE000828170478184704730B502881B4B1C4C42
:101BF00098420DD0A0420BD0B0F1804F08D0194DC3
:101C0000A84205D0184DA84202D0184DA84203D1D1
:101C100022F070054A882A43154DA84206D0154D7A
:101C2000A84203D022F44075CA882A4302808A88D9
:101C300082850A88028598420AD0A04208D00E4ABE
:101C4000904205D00D4A904202D00D4A904201D1F7
:101C5000097A01860121818230BD0000002C0140FB
:101C6000003401400004004000080040000C004027
:101C700000100040001400400040014000440140BA
:101C80000048014070B5174C40F22551204600F045
:101C900082F9002824D0204600F00AFA124CC1B282
:101CA0004FF4FA752068A84203DA104A1154401C18
:101CB0002060A84208D10EA000F00EF9002020609C
:101CC00029460A48FEF759FA4FF080440021204681
:101CD000FFF788FF2046BDE870400121FFF7ABBE4B
:101CE00070BD0000003801401800002048000020AE
:101CF000553120425546206F766572666C6F770DC0
:101D00000A00000030B5044687B001210420FFF727
:101D1000FDFB01218803FFF7F9FB234800F0FAF8E7
:101D200018208DF813004FF40070ADF81000032058
:101D30001E4D8DF8120004A92846FFF70BFA042067
:101D40008DF813000002ADF8100004A92846FFF733
:101D500001FA009400240C20ADF80A00144DADF8EF
:101D60000640ADF80C40ADF80840ADF804406946B7
:101D7000284600F047F90121284600F0C1F8012269
:101D800040F22551284600F025F925208DF8140051
:101D900001208DF817008DF815408DF8164005A824
:101DA000FFF75EFB07B030BD004400400008014073
:101DB0000038014070B50446074D09E02846641C10
:101DC00000F07AF98021284600F0DEF80028F9D0EA
:101DD00021780029F2D170BD0038014010B5114CB6
:101DE0008EB040F22551204600F0D5F8002815D0DD
:101DF000204600F05DF9C2B20BA1684600F062F91E
:101E00006846FFF7D7FF094C80212046FFF7FAF913
:101E100030B1002280212046FFF7FFF90EB010BD3F
:101E20000122F7E700440040256300000010014054
:101E3000F0B5054687B001210420FFF767FB0121BB
:101E40004804FFF74BFB224E304600F063F81820A1
:101E50008DF813000424ADF8104003201D4F8DF8B9
:101E6000120004A93846FFF775F98DF813400820D1
:101E7000ADF8100004A93846FFF76CF900200C21DA
:101E8000ADF80A10ADF80600ADF80C00ADF808008A
:101E9000ADF8040000956946304600F0B3F8012122
:101EA000304600F02DF8012240F22551304600F076
:101EB00091F826208DF8140001208DF817008DF878
:101EC00015008DF8160005A8FFF7CAFA07B0F0BD97
:101ED000004400400008014070B50446074D09E089
:101EE0002846641C00F0E8F88021284600F04CF8F1
:101EF0000028F9D021780029F2D170BD00440040BB
:101F00000029818902D041F4005101E021F40051FF
:101F100081817047174910B588420AD101218C038D
:101F20002046FFF7FFFA2046BDE810400021FFF7EA
:101F3000F9BA1149884202D101214C0410E00F493D
:101F4000884202D101218C040AE00D49884202D165
:101F50000121CC0404E00B4988420AD101210C057F
:101F60002046FFF7C7FA2046BDE810400021FFF7E2
:101F7000C1BA10BD00380140004400400048004094
:101F8000004C0040005000400246002012880A42E7
:101F900000D00120704730B501F01F020124002558
:101FA000C1F3421304FA02F2012B0FD0022B0FD01F
:101FB000838A4FEA11210088134204FA01F400EAEF
:101FC000040001D000B10125284630BD8389F0E727
:101FD000038AEEE710B5C1F3421301F01F0401219B
:101FE000A140012B07D0022B07D01430002A026831
:101FF00005D00A4304E00C30F8E71030F6E78A43D6
:10200000026010BD30B50446008A85B00D464CF61E
:10201000FF710840E98801432182A1894EF6F3103F
:102020000140A8882A8910436A890A431043A08185
:10203000A08A4FF6FF410840A9890143A182684662
:10204000FFF7D2FA1948844201D1039800E00298C0
:10205000A189090400EBC00101EB0010296801D53A
:10206000490000E08900B0FBF1F06422B0FBF2F11E
:1020700009010B096FF018056B4300EB8300A3897E
:102080001D044FF0320306D503EBC000B0FBF2F0A5
:1020900000F0070005E003EB0010B0FBF2F000F0E9
:1020A0000F000843208105B030BD0000003801401A
:1020B0008088C0F308007047C1F308018180704731
:1020C000FEE700000FB4084B10B504A902AA03985C
:1020D00000F0DEF8044602A9002000F070FC204663
:1020E00010BC5DF814FB0000BF29000802E008C81E
:1020F000121F08C1002AFAD170477047002001E082
:1021000001C1121F002AFBD1704700002DE9FF5FBB
:1021100082B00021DDE90430020DDDF840B0034358
:1021200018D044F61050A2F2FF3242431514119811
:1021300001281FD0A5EB0B00401C5FEA000A4FF0FE
:1021400000064E4FDFF83891B046504615D5CAF11B
:10215000000413E0119801244AA3012801D16FEA79
:102160000B010298119AC0E90031C0E9024206B0A1
:10217000BDE8F09FCBF10000DFE704460021404AB4
:10218000491842EB0450CDE9001012E0E00707D0F7
:1021900032463B4640464946FEF75CFA8046894651
:1021A00032463B4610461946FEF754FA06460F469D
:1021B0006410002CEAD1DDE90401DDE90023BAF165
:1021C000000F06DAFEF746FA42464B46FEF742FAA1
:1021D00005E0FEF712F842464B46FEF70EF80446BD
:1021E0000E460022284BFEF7BFFA03D84FF0FF300F
:1021F000014607E00022254B20463146FEF783F9D1
:10220000FEF79AFA102409E0002C0ADB0A220023C8
:10221000FEF7B4F8039B30321A55641E50EA0102EF
:10222000F2D1641C039AC4F111031444119A012AD7
:1022300003D0012208430DD10AE0084304D0002056
:102240004FF0110B119072E7A3EB0B056D1E0DE023
:102250005B4504DD4FF0000205F1010504E003DAFF
:102260004FF00002A5F10105002AECD00298119967
:10227000C0E90231C0E9004579E7000000001440E0
:102280000000F03F300000000000F0430000E03F9D
:102290002DE9FF4F95B09B468946064600250FE283
:1022A000252877D100242746F84A0121059400E02B
:1022B000044316F8013F203B01FA03F01042F7D126
:1022C00030782A2811D06FF02F033078A0F1300237
:1022D000092A16D8059A44F0020402EB820203EBA5
:1022E00042021044761C0590EFE759F8042B059242
:1022F000002A03DA504244F40054059044F00204EA
:10230000761C30782E2816D116F8010F44F00404FC
:102310002A280DD06FF02F023078A0F13003092B5E
:1023200009D807EB870302EB4303C718761CF3E7D2
:1023300059F8047B761C30786C280FD006DC4C28CA
:1023400017D068280DD06A2814D104E0742810D062
:102350007A280FD10DE044F400140AE044F480140C
:1023600001E044F440147278824202D104F58014F2
:10237000761C761C307866280BD013DC582877D072
:1023800009DC002875D04528F6D04628F4D0472827
:102390001AD19DE118E0632835D0642879D06528EA
:1023A00012D195E1702873D008DC6728F1D0692834
:1023B0006FD06E280DD06F2806D1B5E073282CD0D1
:1023C000752875D0782874D05A46179990476D1C97
:1023D00075E1C4F30250022809D003280DD0D9F8C2
:1023E000001004280DD00D6009F1040967E1D9F847
:1023F0000010EA17C1E90052F6E7D9F800100D8085
:10240000F2E70D70F0E719F8041B8DF800100020BA
:102410008DF80100EA46012003E059F804AB4FF0C3
:10242000FF3061074FF0000102D40DE008F1010117
:102430008846B9420FDA8045F8DB1AF808100029FF
:10244000F4D108E008F1010188468142FADB1AF86C
:1024500008100029F6D105985B46A0EB0807214635
:102460003846179A00F094FA284400EB080507E074
:102470004DE029E10DE01AF8010B5A4617999047F3
:10248000B8F10108F7D25B4621463846179A13E1A6
:1024900042E00A220092C4F302524FF0000A022ADC
:1024A00008D059F804CB032A4FEAEC710AD00DE0AA
:1024B00029E02AE009F1070121F00702F2E802C150
:1024C000914609E00FFA8CFC4FEAEC71042A03D123
:1024D0004FFA8CFC4FEAEC71002907DA0A4600211A
:1024E000DCF1000C61EB02012D2202E0220504D593
:1024F0002B228DF80420012203E0E20701D02022E4
:10250000F7E7904659E00A2102E010220DE0102181
:102510004FF0000A00910BE010224FF0000A44F047
:1025200004040827009203E008224FF0000A0092FA
:10253000C4F30252022A05D059F804CB0021032A21
:1025400008D009E009F1070121F00702F2E802C111
:10255000914605E01FFA8CFC042A01D10CF0FF0C17
:102560004FF00008220728D5702806D0009B83F082
:10257000100353EA0A0305D00EE040228DF8042030
:10258000012208E05CEA010206D030228DF8042026
:102590008DF8050002229046009B83F0080353EA61
:1025A0000A030AD15CEA010201D1620705D5302293
:1025B0008DF804204FF001087F1E582804D034A065
:1025C00003900EA802900DE036A0F9E7534660464E
:1025D000009AFDF7D3FE84460398825C0298401E61
:1025E000029002705CEA0100F0D1029806A9081A74
:1025F00000F1200A600702D524F4803400E00127AE
:10260000574502DDA7EB0A0000E0002000EB0A01BD
:10261000009005984144401A0590E00306D45B46BB
:102620002146179A059800F0B3F90544002706E003
:1026300001A85A46C05D179990476D1C7F1C4745FD
:10264000F6DBE0030CD55B462146179A059800F0AF
:102650009FF9054404E030205A46179990476D1CB5
:102660000099481E00900029F5DC08E002980299C4
:102670005A460078491C0291179990476D1CBAF18F
:102680000001AAF1010AF1DC65E10000092801005E
:1026900030313233343536373839616263646566D8
:1026A000000000003031323334353637383941429A
:1026B000434445460000000000F058F90544761CEC
:1026C000307800287FF4ECAD19B02846BDE8F08FD3
:1026D000620700D4062709F1070222F0070CFCE884
:1026E0000223E14603F000485FEA080C02D00FF233
:1026F000702C0DE05FEA045C02D50FF2682C07E055
:102700005FEAC47C02D00FF2602C01E0AFF2700CE3
:102710004FF0FF3823F00043CDF850C065280CD0AF
:1027200006DC452809D046281DD047283DD13DE08C
:10273000662818D067287ED138E00021112F01DBF0
:10274000112000E0781CCDE9000106A90EA8FFF7D2
:10275000DDFCDDE90F010E9A03910021009207F1E3
:10276000010A04914DE04FF000400097CDE90110BF
:1027700006A90EA8FFF7CAFCDDE90F0203920E9B23
:1027800011990022DDF80CA00093049211B9791C74
:1027900000EB010AB7EB0A0004D4C0F1FF3007F1E7
:1027A000010A0490AAEB0700019044E0012F00DA2F
:1027B00001270021112F01DD112000E03846CDE96D
:1027C000000106A90EA8FFF7A1FCDDE90F010E9A92
:1027D0000391002104910092BA4621070CD4039979
:1027E000514500DA8A46BAF1010F05DD009AAAF1D7
:1027F0000101515C302908D0B84202DA10F1040F0F
:1028000006DA0121CDE9011015E0AAF10101E9E79D
:10281000002805DC049901440491AAEB000102E0C0
:10282000411C514500DD8A460499401A401C019024
:102830004FF000400290200704D40198504501DB7E
:10284000CDF8048000208DF84F0002980DF14F075D
:10285000B0F1004F25D02B200E9002984FF00208C7
:1028600000280CDA404202902D200E9007E00A2149
:102870000298FDF76DFD3031029007F8011DB8F1A7
:102880000001A8F10108F2DC02980028EFD1791EBE
:102890000E980870307800F0200040F0450007F8EE
:1028A000020D12A8C01B00F107081498007800B1AF
:1028B000012000EB0A01019801EBE0710598414409
:1028C000401A401E0590E00306D45B462146179A45
:1028D000059800F05DF805441498007818B15A4640
:1028E000179990476D1CE00324D55B462146179A43
:1028F000059800F04DF805441CE00498002807DB1B
:10290000DDE90301884203DD0098405C179901E08E
:10291000179930205A469047049805F10105401C4C
:1029200004900198401E019004D12E205A46179918
:1029300090476D1CBAF10001AAF1010ADDDC05E047
:1029400017F8010B5A46179990476D1CB8F1000112
:10295000A8F10108F4DC5B462146179A0598ABE61E
:102960002D0000002B000000200000002DE9F041A8
:10297000044600251E461746880404D405E039465F
:102980002020B0476D1C641EF9D52846BDE8F081B3
:102990002DE9F041044600251E469046C80301D5A6
:1029A000302700E02027880404D505E0414638465A
:1029B000B0476D1C641EF9D52846BDE8F0810A6851
:1029C000531C0B601070704730B504464FF47A7595
:1029D00002E0284600F010F8641EA4B2F9D230BD1F
:1029E00030B504464FF47A7502E02846FFF7ECFF55
:1029F000641EA4B2F9D230BD00EBC000C1004FF09C
:102A0000E020416100228261052101610169CB075B
:102A100001D0C903FAD50421016182617047000029
:102A2000A8B04FF000088DF838808DF83C80FDF795
:102A3000DAFFFEF783FDFEF74BFBFEF7F3FB48F6EC
:102A40009F4421462720FEF747FF21462720FEF717
:102A5000A7FF4FF4E1342046FFF754F92046FFF773
:102A6000E7F9FEF7B7FAFDF713FF614E3060FEF7A6
:102A7000ECFC604F3860FEF787FE5F4CFF2120467C
:102A8000FEF7C9FB5D4D4FF47A79286838B1012112
:102A90002046FEF7BEFB5A480068D8B123E03E212D
:102AA0002046FEF7B8FB57480068002802DDFEF715
:102AB0006DF8286001212046FEF7A4FB40B10022FA
:102AC00001212046FEF7A9FB4846FFF77DFFDCE722
:102AD0000122F5E72868012805D14846FFF774FF71
:102AE000FEF702F978B102212046FEF792FB30682A
:102AF000B0B110212046FEF78CFB0FA90EA8FDF700
:102B00001BFFA8B118E002212046FEF77BFB28B18D
:102B1000002202212046FEF780FBB6E70122F8E7FB
:102B2000FDF7B6FE306038A101A8FDF75DFB0FE0B0
:102B30008DF838808DF83C809DF83C309DF8382029
:102B400033A101A8FFF7BEFA8DF838808DF83C80DC
:102B50003868E0B320212046FEF75BFB1020FEF72B
:102B60007FFE00F06DF82C490878497801EB0020D1
:102B7000C0B2FDF7B1FB4FF03332284BFDF73DFB00
:102B8000FDF7CAFBFDF7B5FB02460B4624A11DA8C5
:102B9000FFF798FA01212448FEF72DFB024623A1F6
:102BA00022A8FFF78FFA01A8009022AB1DAA20A14E
:102BB00010A8FFF787FA10A8FEF73AF9042120467B
:102BC000FEF720FB90B100220421204600E005E042
:102BD000FEF723FB0120FFF703FF56E7FEF735FC66
:102BE000386016A11DA8FDF7FFFAD3E70122EBE735
:102BF0003000002014000020001001401C000020C4
:102C000020000020280000202D317C2D3100000004
:102C100025647C2564000000060000203333F33F68
:102C2000252E3466000000000008014025640000E5
:102C30002325737C25737C25732100002D31000032
:102C400070B5FEF7CDFB4720FEF7A2FB0E4D0F4EF1
:102C5000002400BFFEF732FB285508213046FEF75E
:102C6000D8FA032C0DD00020FEF764FB641CE4B2FC
:102C7000032CEFD3FEF7D0FBBDE870400520FFF733
:102C8000A3BE0120F0E70000060000200010014074
:102C9000B02C00080000002048000000EC200008D4
:102CA000F82C00084800002058060000FC2000080E
:102CB0000000000000000000000000000000000014
:102CC0000000000000000000000000000000000004
:102CD00000000000000000000000000000000000F4
:102CE00000000000020406080000000001020304C6
:082CF0000102030406070809B4
:0400000508000135B9
:00000001FF
