:020000040800F2
:10000000700D00209D010008A5010008A70100084F
:10001000A9010008AB010008AD01000800000000C4
:10002000000000000000000000000000AF01000818
:10003000B101000800000000B3010008B50100088C
:10004000B7010008B7010008B7010008B7010008B0
:10005000B7010008B7010008E5060008B70100086D
:100060003D0700083908000855090008B7010008D5
:10007000B7010008B7010008B7010008B701000880
:10008000B7010008B7010008B7010008B701000870
:10009000B7010008B7010008B7010008B701000860
:1000A000CD1E0008B7010008B7010008B70100081D
:1000B00035200008BD200008F5210008B701000820
:1000C000B7010008B7010008B7010008B701000830
:1000D000B70100088D250008B7010008B701000826
:1000E000B7010008B7010008B7010008B701000810
:1000F000B7010008B7010008B7010008B701000800
:10010000B7010008B7010008A5220008B7010008E0
:10011000B7010008B7010008B7010008B7010008DF
:10012000B7010008B7010008B7010008B7010008CF
:10013000B7010008B7010008B7010008B7010008BF
:10014000B7010008B7010008B7010008B7010008AF
:10015000B7010008B7010008B7010008B70100089F
:10016000B7010008B7010008B7010008B70100088F
:10017000B7010008B7010008B7010008B70100087F
:10018000B7010008B7010008DFF80CD000F02EF826
:1001900000480047992F0008700D0020064880474E
:1001A00006480047FEE7FEE7FEE7FEE7FEE7FEE75C
:1001B000FEE7FEE7FEE7FEE7651E0008890100088E
:1001C00030B50B46014600202022012409E021FA27
:1001D00002F59D4205D303FA02F5491B04FA02F524
:1001E0002844151EA2F10102F1DC30BD064C074D7A
:1001F00006E0E06840F0010394E8070098471034F7
:10020000AC42F6D3FFF7C4FF0839000828390008CC
:1002100070B58C1810F8015B15F0070301D110F8C8
:10022000013B2A1106D110F8012B03E010F8016BF5
:1002300001F8016B5B1EF9D12B0705D40023521E78
:100240000DD401F8013BFAE710F8013BCB1A921CE0
:1002500003E013F8015B01F8015B521EF9D5A142DE
:10026000D8D3002070BD000000B58DB00121080278
:1002700001F070FB0121084601F03CFB20200B90AF
:1002800003208DF830008DF8310000208DF8320009
:100290008DF833000BA9124800F0BCFC00F092F876
:1002A000002007904FF400300890002009904FF490
:1002B00020600A90002001908DF808008DF8090058
:1002C0000390059001208DF8180001A9054800F061
:1002D00091F80121034800F052F80DB000BD000074
:1002E000000002400020014000B58DB00121202017
:1002F00001F000FB0121880201F02CFB80200B9013
:1003000003208DF8300000208DF8320002208DF897
:10031000310000208DF833000BA9154800F07AFC5D
:10032000002005908DF818008DF8190007900990AD
:1003300001208DF8280005A90E4800F05BF8032382
:10034000012205210B4800F07FF8002001904FF4B6
:1003500080300290002003904FF40060049001A8C8
:1003600000F018F80121034800F009F80DB000BDB5
:100370000014024000220140CA430260704721B1CC
:10038000826842F00102826003E0826822F001028A
:10039000826070470021084A1168084A1140D0E97C
:1003A00000231A4383681A43C3681A431143044A5B
:1003B000C2F804137047000004230140E030FCFF42
:1003C0000020014010B50121080201F0D3FA0021FC
:1003D0004FF4807001F0CEFA10BD0146C86C80B2B7
:1003E00070470246002013680B400BB1012000E06B
:1003F0000020704730B50246002000235068104CA2
:1004000020400D790C6844EA052420435060906830
:100410000C4C2040D1E903542C438D682C434D797A
:1004200044EA450420439060D06A20F470000C7DBB
:10043000641EE4B2234340EA0350D06230BD0000A2
:10044000FFFEFFFCFDF7FFC0F0B504460D4600209F
:100450000021092D11DDE068A5F10A0606EB46072B
:10046000072606FA07F18843A5F10A0606EB4606B9
:1004700003FA06F10843E0600CE0206905EB45074C
:10048000072606FA07F1884305EB450603FA06F14D
:1004900008432061072A0FDA606B561E06EB8607B9
:1004A0001F2606FA07F18843561E06EB860605FA54
:1004B00006F10843606322E00D2A0FDA206BD61F95
:1004C00006EB86071F2606FA07F18843D61F06EBC0
:1004D000860605FA06F10843206310E0E06AA2F1FF
:1004E0000D0606EB86071F2606FA07F18843A2F1E0
:1004F0000D0606EB860605FA06F10843E062F0BD3C
:10050000816841F08041816070470146081100EB2D
:100510008000430001F00F029818C0B270470146F6
:100520000A2091FBF0F0F02202EA00100A2291FB6F
:10053000F2F302FB131202F00F02104370470000A7
:1005400010B5012000F09EF80120034908600A2040
:1005500002F096FC10BD0000A402434210B5044610
:1005600000F0ACF800F06AF810B14FF0FF3010BDA9
:1005700000F040F8207000F03DF8607000F03AF8AC
:10058000A07000F037F8E07000F034F82071FFF749
:10059000D7FF207861780844A1780844E1780844BE
:1005A000C0B22179884201D10020E0E76FF001005C
:1005B000DDE700001CB50121402001F09BF94FF45C
:1005C0000070009001208DF8040000208DF80600D6
:1005D00002208DF8050000208DF8070069460348C9
:1005E00000F018FB0120024908601CBD0018024001
:1005F000A402434270B50025002000F043F8002417
:1006000016E000BF0C4800680028FBD0232002F051
:100610005CFC09480068012809D1C4F10701884041
:100620002843C5B200BF044800680128FBD0641C01
:10063000082CE6DB284670BD2402434210B5002496
:10064000002000F01FF809E0012002F03EFC641CCD
:100650000A48844202DD4FF0FF3010BD08480068B0
:100660000128F1D000BF064800680028FBD000BF79
:10067000034800680128FBD00020EEE740420F004D
:10068000240243421CB504460121402001F032F906
:100690004FF4007000908DF8044000208DF80600A3
:1006A00002208DF8050000208DF8070069460248F9
:1006B00000F0B0FA1CBD00000018024010B5012087
:1006C000FFF7E0FF002005490860142002F0D8FB86
:1006D00001200349C1F8A40210BD0000A402434256
:1006E0000000434210B5C82002F0B4FB0F48006878
:1006F00010B90F48006818B1012000F03BFA10BD96
:100700000C480068401C032190FBF1F201FB120031
:100710000849086000F07EFC4FF40071064800F0C4
:10072000E8FA012000F026FA00BFE8E70400002004
:1007300008000020000000200014024010B5C8206E
:1007400002F088FB4FF48061314800F0D2FA314862
:10075000006818BB3048006800B32F4800680728BD
:100760001AD2DFE800F019040A0D101316002B4806
:100770000088401C294908800FE002F0C9FA0CE00B
:1007800002F06AFA09E002F0A7FA06E002F0B2FA13
:1007900003E002F0D9FA00E000BF00BF1D48006886
:1007A000012827D11E48006820B31D480068012891
:1007B00006D002280AD003280ED0042818D111E050
:1007C00018480078401C1749087012E01648007855
:1007D000401C154908700CE014480078401C13496F
:1007E000087006E012480078401C1149087000E0CB
:1007F00000BF00BF07480068012805D1084800680D
:1008000010B901200B490860042000F0B3F910BDB5
:10081000001402400000002004000020100000200E
:1008200008000020320000203300002034000020A7
:10083000350000200C00002010B5C82002F00AFB93
:100840003A48006818BB3A48006800B33848006866
:1008500007281AD2DFE800F019040A0D1013160059
:1008600034480088401E334908800FE002F0D0FA77
:100870000CE002F079FA09E002F0AEFA06E002F0CC
:10088000B9FA03E002F0D8FA00E000BF00BF274841
:100890000068012827D12848006820B3264800684E
:1008A000012806D002280AD003280ED0042818D127
:1008B00011E022480078401E2049087012E02048CC
:1008C0000078401E1E4908700CE01E480078401E4B
:1008D0001C49087006E01C480078401E1A49087040
:1008E00000E000BF00BF11480068012819D112487C
:1008F0000068B0B900201549086000214FF0804021
:1009000001F013FD4FF48071114800F0EEF94FF43F
:1009100080710F4800F0E9F94FF480710C4800F045
:10092000E4F9082000F026F910BD000000000020C6
:1009300004000020100000200800002032000020E9
:100940003300002034000020350000200C0000207F
:100950000014024070B588B0002400254FF4005107
:10096000744800F0C6F9C82002F074FA72480068B2
:10097000022808D00021714801F0D7FC00214FF077
:10098000804001F0D2FC6C480068002878D16C48A7
:100990000068401C072190FBF1F201FB120068493E
:1009A000086008460068002842D1664908700021A6
:1009B000654801F0BAFC00F02DFB6448006840F483
:1009C00000406249086062480278624801786248E3
:1009D000007801F04DF9614802786148017861487A
:1009E000008802F0A9FA064633465C4802785C4863
:1009F00001785C48008801F0DDF804AA05A906A882
:100A000002F052FB6B4601AA02A903A802F028FBE0
:100A100001214A4801F089FC0121484801F085FC88
:100A20000121464801F081FC102000F0A3F87CE091
:100A30004348006801281AD14448006820F4004067
:100A40004249086000213D4801F06FFC464B434A93
:100A5000434907A802F004FB9DF81C0000F5FA606A
:100A6000404908803A4A3B493B4802F01DFB0121BE
:100A7000354801F05AFC102000F07CF855E0FFE703
:100A80002D480068012850D138480068401C0521D5
:100A900090FBF1F201FB120034490860084600683F
:100AA000D8B90020274908700021274801F03DFCF3
:100AB0000021254801F039FC0021234801F035FCD4
:100AC00000F0A8FA00F0A6FA00F0A4FA01211B48F1
:100AD00001F02BFC00F09EFA27E024480068012872
:100AE00020D10021154801F020FC00214FF080406A
:100AF00001F01BFC4FF480711D4800F0F6F84FF434
:100B000080711B4800F0F1F84FF48071184800F034
:100B1000ECF84FF48071164800F0E7F801210A481C
:100B200001F003FC102000F025F8102000F022F85E
:100B300008B070BD001002400000002000400140DD
:100B4000040000202400002000040040703802400F
:100B500017000020160000201500002013000020C0
:100B600012000020100000201400002008000020C7
:100B7000001402400149086070470000143C014025
:100B8000002123498279002A3AD00A461268036874
:100B90009A430B461A600A1D126803689A430B1D9C
:100BA0001A60027911440A6803681A430A60184AF5
:100BB0000832126803689A43154B08331A601A1DED
:100BC000126803689A43124B0C331A604279102A58
:100BD0000ED11A1F126803681A430D4B08331A60AE
:100BE0001A1D126803681A43094B0C331A600DE092
:100BF0000749427911440A6803681A430A6005E00C
:100C0000027911440A6803689A430A607047000039
:100C1000003C0140F0B50A4600210023002400BF3B
:100C20003DE0012505FA01F3156805EA03049C423D
:100C300034D105684F000326BE40B54305601579E1
:100C40004E00B5400668354305601579012D02D088
:100C50001579022D16D185684F000326BE40B54395
:100C6000856055794E00B540866835438560456896
:100C700001268E40B5434560456896798E40B6B2F0
:100C800035434560C5684F000326BE40B543C56087
:100C9000D5794E00B540C6683543C560491C10295A
:100CA000BFD3F0BDF0B5002300244D07ED0E02FACE
:100CB00005F3CE1000F1200555F826504E07F70E2B
:100CC0000F26BE40B543CF1000F1200646F827504E
:100CD000CE1000F1200555F8265045EA0304CE1049
:100CE00000F1200545F82640F0BD4183704701839F
:100CF000704742694A4042617047000010B504469F
:100D000002212046FFF738FB03230122052120465C
:100D1000FFF79AFB2046FFF7F3FB00BF02212046B6
:100D2000FFF75FFB0028F9D00148FFF756FB10BD25
:100D3000002201400EB50121880300F00BFE00F0F7
:100D400065F80021084600F0E3FF0221042000F0CE
:100D5000DFFF0321042000F0DBFF0421084600F040
:100D6000D7FF0120019000208DF808000C208DF89D
:100D7000090001208DF80A0001A8FFF701FF0420F7
:100D8000019001A8FFF7FCFE0820019001A8FFF7E1
:100D9000F7FE1020019001A8FFF7F2FE06208DF863
:100DA000000000208DF801008DF8020001208DF870
:100DB0000300684600F0E8F808208DF800000120E4
:100DC0008DF801008DF802008DF80300684600F0F0
:100DD000DBF809208DF8000002208DF801008DF865
:100DE000020001208DF80300684600F0CDF80A20CB
:100DF0008DF8000003208DF801008DF8020001201D
:100E00008DF80300684600F0BFF80EBD1CB5012147
:100E1000084600F06FFD0121102000F06BFD01205D
:100E2000009000208DF804008DF8070069460748FF
:100E3000FFF7F0FE1C20009000208DF804008DF8D4
:100E4000070069460248FFF7E5FE1CBD00000240AE
:100E5000001002401CB50121202000F04BFD4FF492
:100E6000E060009001208DF8040000208DF806005D
:100E700002208DF8050000208DF80700694615480E
:100E8000FFF7C8FE0121102000F034FD4FF4C040F0
:100E9000009001208DF8040000208DF8060002204B
:100EA0008DF8050000208DF8070069460A48FFF715
:100EB000B1FE4FF4C0610748FFF719FF4FF480718E
:100EC0000448FFF712FF4FF4C0410348FFF70FFF3C
:100ED0001CBD000000140240001002401CB501219E
:100EE000082000F007FD0121042000F003FDC020D0
:100EF000009001208DF8040000208DF806000220EB
:100F00008DF8050001208DF8070069460848FFF7B5
:100F100081FE4FF40060009069460648FFF77AFEB4
:100F20000120054908600549C1F898021CBD000070
:100F3000000C024000080240AC02414200804142E5
:100F4000014600220E4B1A60002012E000220D4BD9
:100F50001A60802202410A401AB101221B1D1A6048
:100F600003E00022074B1B1D1A600122054B1A608B
:100F7000401C0828EADB0122014B1A607047000080
:100F8000AC0241429882414270B5002100230F22F9
:100F9000C4781CB3174C246804F4E064C4F5E0641E
:100FA000C4F30721C1F10404E3B20A4144789C4030
:100FB000E1B28478144021430C07210E0E4C0578D1
:100FC0006155047804F01F050124AC4005786D11CB
:100FD000AD0005F1E025C5F8004109E0047804F012
:100FE0001F050124AC40054D0678761145F82640D2
:100FF00070BD00000CED00E000E400E080E100E0E6
:1010000002490143024A1160704700000000FA05DE
:101010000CED00E070B5002418E004F1B0000021F0
:1010200000F056FC0021084600F052FC0021102080
:1010300000F04EFC002505E00121002000F048FCF6
:10104000681CC5B2802DF7DB601CC4B2082CE4DB41
:1010500070BD00002DE9F84305460E4690461F4638
:10106000089CCCB10C220021084600F09BFB0E220C
:101070000021102000F096FB11220021202000F01A
:1010800091FB12220021302000F08CFB10233A2229
:101090000021402000F034FB10233FA20221002059
:1010A00000F0F8FB012C08D0102003232A4602216F
:1010B0000090182000F0AAFB05E0102337A20221BF
:1010C000182000F0E7FB102335A20221302000F0A9
:1010D000E1FB022C08D010200323324602210090AD
:1010E000482000F093FB05E010232CA202214820A9
:1010F00000F0D0FB0D220421002000F053FB0E2253
:101100000421102000F04EFB11220421202000F0C9
:1011100049FB12220421302000F044FB10233A2224
:101120000421402000F0ECFA10231BA2062100202D
:1011300000F0B0FB032C08D0102003234246062108
:101140000090182000F062FB05E0102313A2062196
:10115000182000F09FFB102311A20621302000F080
:1011600099FB042C08D0102003233A460621009056
:10117000482000F04BFB05E0102308A20621482080
:1011800000F088FB052C05D1102306A2002108469B
:1011900000F080FBBDE8F883554C3A002020200089
:1011A0004C4C3A006572726F720000002DE9F04FEE
:1011B0008BB005460E4690461F46DDE915ABDDF8BF
:1011C0005090179C012C08D0102004232A4600219F
:1011D0000090084600F01AFB05E0102347A200210A
:1011E000084600F057FB0A220021202000F0DAFA1E
:1011F000022C08D01020022332460021009030201B
:1012000000F004FB05E010233EA20021302000F096
:1012100041FB0B220021402000F0C4FA032C08D02F
:1012200010200223424600210090502000F0EEFAE8
:1012300005E0102333A20021502000F02BFB0022F8
:101240001146602000F0AEFA07220221002000F0D3
:10125000A9FA08220221102000F0A4FA3A4602213D
:10126000202000F09FFA042C0BD04A4626A108A8A3
:1012700001F028FB102308AA0421002000F00AFB3B
:1012800005E010231FA20421002000F003FB10231F
:101290003A220421184600F033FA052C0BD05246AE
:1012A00019A105A801F00EFB102305AA042118209E
:1012B00000F0F0FA05E0102312A20421182000F03B
:1012C000E9FA10233A220421282000F019FA062C0A
:1012D0000BD05A460CA102A801F0F4FA102302AA7E
:1012E0000421302000F0D6FA05E0102305A20421E5
:1012F000302000F0CFFA0BB0BDE8F08F2020202086
:1013000000000000202000002530326400000000B2
:1013100038B504460D460C220021084600F042FA7A
:101320000E220021102000F03DFA10233A22002165
:10133000202000F0E5F91020032322460021009030
:10134000282000F063FA0D220221002000F02AFA82
:101350000E220221102000F025FA10233A22022149
:10136000202000F0CDF9102003232A46022100900E
:10137000282000F04BFA11220621002000F012FA7A
:1013800012220621102000F00DFA102310A20621CF
:10139000202000F07FFA0F48006860B910230EA2E9
:1013A0000621282000F076FA10230CA2062128201E
:1013B00000F070FA0BE0102307A20621282000F0AD
:1013C00069FA102306A20621282000F063FA38BD2E
:1013D000200000000C000020202020004F46460086
:1013E0004F4E000010B592B00020119010900F9059
:1013F0000E9000240D900C900B900FAA10A911A82C
:1014000001F052FE0BAB0CAA0DA90EA801F028FEAC
:101410009DF8380000F5FA649DF82C00072190FB38
:10142000F1F201FB1200C0B20B90102004232246FF
:1014300000210090084600F0E9F90A22002120204E
:1014400000F0B0F91020022300909DF83420002114
:10145000302000F0DBF90B220021402000F0A2F93F
:101460001020022300909DF830200021502000F031
:10147000CDF900221146602000F094F907220221E4
:10148000002000F08FF908220221102000F08AF9D4
:101490009DF82C200221202000F084F99DF84420A2
:1014A00017A108A801F00EFA102308AA04210020B1
:1014B00000F0F0F910233A220421184600F020F938
:1014C0009DF840200EA105A801F0FCF9102305AA03
:1014D0000421182000F0DEF910233A2204212820EC
:1014E00000F00EF99DF83C2005A102A801F0EAF9F0
:1014F000102302AA0421302000F0CCF912B010BD54
:101500002530326400000000F8B5044600260F22A2
:101510000021084600F046F910220021104600F094
:1015200041F910233A220021202000F0E9F8102090
:10153000009040F6FF70021B05230021282000F0D8
:1015400065F94FF4FA7094FBF0F0C0F10800C5B2F1
:10155000012D00DA0125102309A20221002000F04C
:1015600099F909E014220221304600F01BF9681EA7
:10157000C5B206F11000C6B2002DF3DCF8BD0000C4
:10158000202020202020202020202020202020205B
:10159000000000001CB5FFF7A1FC0121042000F0B1
:1015A000A9F94FF4A070009001208DF804000020EC
:1015B0008DF8060002208DF8050001208DF8070047
:1015C00069464248FFF726FB012041490860642034
:1015D00001F056FC00203F49C1F89802C82001F0F4
:1015E0004FFC01203A4908604FF4FA7001F048FCC2
:1015F0000021AE2000F06CF90021084600F068F9E7
:101600000021102000F064F90021402000F060F972
:101610000021B02000F05CF90021812000F058F991
:101620000021FF2000F054F90021A12000F050F922
:101630000021A62000F04CF90021A82000F048F974
:1016400000213F2000F044F90021C82000F040F9BB
:101650000021D32000F03CF90021084600F038F9C1
:101660000021D52000F034F90021802000F030F96D
:101670000021D82000F02CF90021052000F028F9E5
:101680000021D92000F024F90021F12000F020F9F8
:101690000021DA2000F01CF90021122000F018F9D6
:1016A0000021DB2000F014F90021302000F010F9B7
:1016B00000218D2000F00CF90021142000F008F921
:1016C0000021AF2000F004F91CBD0000000802401A
:1016D000980241420000414270B504460D4605F1B2
:1016E000B000002100F0F4F8102141EA14100021AC
:1016F00000F0EEF804F00F00002100F0E9F870BDF2
:101700002DE9F04707460E469046994600250024ED
:10171000A8F12000C5B27F2F02DD0027B01CC6B2A1
:10172000B9F1100F24D131463846FFF7D5FF002418
:1017300008E004EB0511194A505C012100F0C8F8DB
:10174000601CC4B2082CF4DB701CC1B23846FFF731
:10175000C3FF002409E004EB051108310F4A505C77
:10176000012100F0B5F8601CC4B2082CF3DB12E0D4
:1017700031463846FFF7B0FF00240AE005EB45018B
:10178000074A02EB4101085D012100F0A1F8601C4D
:10179000C4B2062CF2DBBDE8F08700000833000875
:1017A000E03000082DE9F04180460E46154600273E
:1017B00031464046FFF790FF00240AE0124A02EB50
:1017C0008511085D012100F083F8781CC7B2601C08
:1017D000C4B2102CF2DB701CC1B24046FFF77CFF94
:1017E00000240CE06900491C074A02EB4111085D26
:1017F000012100F06DF8781CC7B2601CC4B2102C37
:10180000F0DBBDE8F0810000B60300202DE9FF5FAA
:10181000074691461E460E9D4FF0000A002435E013
:10182000301B401EC1B20A2001F00EFCB9FBF0F0E3
:101830000A21B0FBF1F201FB1208BAF1000F14D13A
:10184000701EA04211DDB8F1000F0CD1AB4605EBC4
:10185000DB71491001FB0471C8B22B4620220199AB
:10186000FFF74EFF10E04FF0010AAB4605EBDB71CE
:10187000491001FB0471C8B208F13001CAB22B460D
:101880000199FFF73DFF00BF601CC4B2B442C7DB43
:10189000BDE8FF9F2DE9F04104460F4615469846E6
:1018A00000260FE0AA5D434639462046FFF728FF91
:1018B00004F10800C4B2782C02DD0024B81CC7B2C1
:1018C000701CC6B2A85D0028ECD1BDE8F081000014
:1018D00070B504460D461DB101200549086002E0BF
:1018E000002003490860E0B2FFF72AFB70BD00004A
:1018F000A002414229B1064A12680243044B1A6011
:1019000004E0034A12688243014B1A6070470000EA
:101910003038024029B1064A12680243044B1A606B
:1019200004E0034A12688243014B1A6070470000CA
:101930004038024029B1064A12680243044B1A603B
:1019400004E0034A12688243014B1A6070470000AA
:101950002038024029B1064A12680243044B1A603B
:1019600004E0034A12688243014B1A60704700008A
:101970004438024029B1064A12680243044B1A60F7
:1019800004E0034A12688243014B1A60704700006A
:1019900024380240F0B50021002200240225002650
:1019A0000223324F3F6807F00C0121B1042905D012
:1019B000082937D105E02E4F076036E02D4F07602C
:1019C00033E02A4F3F1F3F68C7F38056274F3F1F22
:1019D0003F6807F03F036EB1264FB7FBF3F7DFF820
:1019E0008CC0ACF1040CDCF800C0CCF3881C07FB05
:1019F0000CF40CE01E4FB7FBF3F7DFF870C0ACF14E
:101A0000040CDCF800C0CCF3881C07FB0CF4174F67
:101A10003F1F3F68C7F301477F1C7D00B4FBF5F70C
:101A2000076002E0124F076000BF00BF0F4F3F6822
:101A300007F0F0010909104F7A5C0768D74047604A
:101A40000A4F3F6807F4E051890A0B4F7A5C4768F8
:101A5000D7408760054F3F6807F46041490B064F48
:101A60007A5C4768D740C760F0BD00000838024084
:101A70000024F40000127A00F80800202DE9F0415B
:101A800080460D461646002700244748006840F06F
:101A90008050454908604548006840F480704349DB
:101AA000086041484030006840F001003E49403144
:101AB00008600BE0012001F0E3F93846791C8FB291
:101AC000B0F5FA7F02DDFF20BDE8F08136484030F6
:101AD000006800F002000028ECD0002732484030B7
:101AE000006820F4407030494031086008460068C2
:101AF00040F4807008600846006840F400400860C8
:101B0000CA202B490860532008602948183800680B
:101B100040F080002649183908600AE0012001F0F1
:101B2000AFF93846791C8FB2B0F5FA7F01DDFE209F
:101B3000CAE71F481838006800F040000028EDD0C0
:101B40001B48143800681A491439086008460068B0
:101B500040F0FF0008600846006840F4FE0008609E
:101B60004046FEF7DCFC00F03F0044EA0044284613
:101B7000FEF7D5FC00F07F0044EA00243046FEF773
:101B8000CEFC00F07F000443094824380460084874
:101B90001838006820F08000054918390860FF20D7
:101BA0000349086001208FE7303802400070004090
:101BB000242800402DE9F04705460E461746984672
:101BC0004FF0000A0024CA2028490860532008600A
:101BD00026481838006840F0800024491839086009
:101BE0000CE0012001F04CF95046411C1FFA81FA2B
:101BF000B0F5FA7F02DD0020BDE8F0871B481838F9
:101C0000006800F040000028EBD0A5F5FA6000F075
:101C1000FF094846FEF783FC44EA00444046FEF7CD
:101C20007EFC00F0070044EA40343046FEF777FCC3
:101C300000F01F0044EA00243846FEF770FC00F074
:101C40003F000443094820380460642001F018F97B
:101C500006481838006820F08000044918390860E8
:101C6000FF20024908600120C6E700002428004048
:101C70002DE9F04107460D4616464FF000080024B6
:101C8000CA2022490860532008602048183800689C
:101C900040F080001D49183908600CE0012001F077
:101CA000EFF84046411C1FFA81F8B0F5FA7F02DDDB
:101CB0000020BDE8F08115481838006800F04000A9
:101CC0000028EBD03846FEF72AFC00F03F0044EA3B
:101CD00000442846FEF723FC00F07F0044EA00247D
:101CE0003046FEF71CFC00F07F0004430748243810
:101CF000046006481838006820F08000034918394D
:101D00000860FF20014908600120D2E72428004034
:101D100030B500228B071C0F0F2303FA04F20B4B84
:101D20008C1053F824309343084C8D1044F8253020
:101D300023468C1053F824308C07240F00FA04F447
:101D40002343024C8D1044F8253030BD0838014043
:101D50000CB50020019000903448006840F48030B9
:101D60003249086000BF3148006800F4003000903C
:101D70000198401C0190009818B90198B0F5A04F47
:101D8000F1D12A48006800F4003010B10120009021
:101D900001E0002000900098012846D123484030FF
:101DA000006840F0805021494031086020480068B8
:101DB00040F440401E4908601C48083000681B4938
:101DC000083108600846006840F400400860084692
:101DD000006840F4A05008601648091F0860081FFA
:101DE000006840F08070091F086000BF0F4800685D
:101DF00000F000700028F9D040F205700E4908602C
:101E00000A480830006820F00300084908310860DB
:101E10000846006840F00200086000BF0348083030
:101E2000006800F00C000828F8D10CBD0038024012
:101E30000070004008544007003C0240042808D1CC
:101E40004FF0E021096941F004014FF0E0221161F7
:101E500007E04FF0E021096921F004014FF0E02292
:101E60001161704710B51548006840F470001349BF
:101E700008601348006840F0010011490860002024
:101E80000F49083108600E4800680E4908400C49A7
:101E900008600D48091D0860081F006820F48020B4
:101EA000091F0860002006490C310860FFF750FF49
:101EB0004FF0006001498039086010BD88ED00E0F6
:101EC00000380240FFFFF6FE1030002410B501215B
:101ED000484800F0FFFA01287ED14748006810B951
:101EE000FFF780FA17E044480068012806D143480C
:101EF000017843480078FFF70BFA0CE03E48006891
:101F0000022808D13F48FEF7F9FE3F4908800846FD
:101F10000088FFF7F9FA3D48006810BB3C480068AC
:101F2000F8B93C480068012830D1344800783A4973
:101F30000978884211DB31480078384909788842AD
:101F40000BDC2F48007836490978884205DB2C489D
:101F5000007834490978884204DD0121880700F0BF
:101F6000E4F913E000214FF0804000F0DEF94FF477
:101F700080712D48FEF7B9FE4FF480712A48FEF7B4
:101F8000B4FE4FF480712848FEF7AFFE2148006888
:101F9000E8B900214FF0804000F0C7F900214FF070
:101FA000804000F0C2F900214FF0804000F0BDF900
:101FB0004FF480711C48FEF798FE4FF480711A4868
:101FC000FEF793FE4FF480711748FEF78EFE0D4822
:101FD000FEF794FE044600E007E0214613A000F05F
:101FE00061FC0121034800F09DF90121014800F046
:101FF00099F910BD00400140000000203100002090
:102000003000002000220140F608002004000020DB
:10201000080000200C0000203500002034000020C3
:1020200033000020320000200014024041443A25D1
:10203000640D0A0010B50121880700F04BFA012851
:1020400007D101020348FEF754FE0121880700F082
:1020500069F910BD001402401FB501210846FFF7C1
:1020600059FC4FF0804000F06DF90121880700F025
:1020700059F944F29F10ADF8040040F6C3100290E5
:102080000020ADF80600ADF80C0001A94FF080402B
:1020900000F03AFA01221146900700F02CFA1C20B9
:1020A0008DF8000003208DF801008DF8020001205A
:1020B0008DF803006846FEF767FF1FBD1FB50121BD
:1020C000224800F007FA01283ED12148006800BBF1
:1020D00020480078002801DD002001E01E4800684B
:1020E0001C490870084600781C4909781C4A127877
:1020F0001C4B1B78CDE90032CDE902101A48037859
:102100001A4802781A4801781A480088FFF74EF8F2
:1021100016E010480078002801DD002001E0164894
:1021200000680C490870084600780090134803784E
:10213000134802781348017813480078FEF78AFFA5
:102140000121024800F0EEF81FBD0000000400402D
:1021500000000020240000200400002017000020C0
:10216000160000201500002014000020130000209D
:102170001200002010000020080000203500002080
:102180003400002033000020320000201FB5012160
:102190000220FFF7BFFB164800F0D4F801211448D5
:1021A00000F0C0F844F29F10ADF8040040F6C310F0
:1021B00002900020ADF80600ADF80C0001A90C4813
:1021C00000F0A2F901221146094800F094F91D20FF
:1021D0008DF8000003208DF8010004208DF8020026
:1021E00001208DF803006846FEF7CEFE1FBD0000FB
:1021F000000400401CB501210D4800F06BF90128D6
:1022000014D181030B48FEF774FD6846FEF7A6F96A
:1022100038B99DF80200084908709DF80000074988
:1022200008700121024800F07DF800BF1CBD0000CD
:102230000008004000100240300000203100002063
:102240001FB501210420FFF765FB154800F07AF85F
:102250000121134800F066F844F29F10ADF8040025
:1022600042F20F7002900020ADF80600ADF80C00AD
:1022700001A90B4800F048F901221146084800F076
:102280003AF91E208DF8000000208DF801008DF82D
:10229000020001208DF803006846FEF775FE1FBDA1
:1022A0000008004010B50121064800F013F901288C
:1022B00007D101020448FEF71CFD0121014800F08E
:1022C00031F810BD000C0040001402401FB5012180
:1022D0000804FFF73FFB44F29F10ADF8040042F200
:1022E0000F7002900020ADF80600ADF80C0001A9B7
:1022F0000B4800F009F901221146094800F0FBF8EB
:1023000018208DF8000002208DF801008DF80200E1
:1023100001208DF803006846FEF736FE1FBD000061
:1023200000400140CA430282704721B1028842F056
:102330000102028004E002884FF6FE731A40028018
:102340007047000010B504465548844208D1012169
:102350000846FFF70FFB00210120FFF70BFB9DE074
:10236000B4F1804F08D101210846FFF7E3FA0021BC
:102370000120FFF7DFFA91E04A48844208D10121A9
:102380000220FFF7D7FA00210220FFF7D3FA85E0F9
:102390004548844208D101210420FFF7CBFA0021EF
:1023A0000420FFF7C7FA79E04048844208D10121B0
:1023B0000820FFF7BFFA00210820FFF7BBFA6DE005
:1023C0003B48844208D101211020FFF7B3FA0021D5
:1023D0001020FFF7AFFA61E03648844208D10121AE
:1023E0002020FFF7A7FA00212020FFF7A3FA55E0ED
:1023F0003148844208D101210220FFF7BBFA0021B5
:102400000220FFF7B7FA49E02C48844209D10121A4
:102410000804FFF7AFFA00214FF48030FFF7AAFA63
:102420003CE02748844209D101214804FFF7A2FA81
:1024300000214FF40030FFF79DFA2FE0214884423D
:1024400009D101218804FFF795FA00214FF480207B
:10245000FFF790FA22E01C48844208D10121402075
:10246000FFF768FA00214020FFF764FA16E01748EA
:10247000844208D101218020FFF75CFA00218020EE
:10248000FFF758FA0AE01248844207D1012180156B
:10249000FFF750FA0021A015FFF74CFA10BD00001D
:1024A000000001400004004000080040000C004013
:1024B00000100040001400400004014000400140B2
:1024C000004401400048014000180040001C00404A
:1024D0000020004030B50246002000230024158A69
:1024E00005EA0103958905EA010413B10CB1012045
:1024F00000E0002030BD1AB183890B43838102E0E4
:1025000083898B438381704700220288184B98424D
:102510000ED0184B98420BD0B0F1804F08D0164B1C
:10252000984205D0154B984202D0154B984204D1E1
:102530004FF68F731A404B881A43124B984207D0BC
:10254000114B984204D04FF6FF431A400B891A43AF
:1025500002804B68C3620B880385054B984202D00A
:10256000044B984201D18B7A038601238382704702
:102570000000014000040140000400400008004049
:10258000000C0040001000400014004010B5002472
:1025900040F225511D4800F0C1F8012834D11C48F3
:1025A000007810BB194800F073F9C4B2232C03D093
:1025B00018480068642819D1012015490870232C97
:1025C00008D114480068642804D000201249114A38
:1025D000126888540F480068642803D100200E490F
:1025E00081F8630000200B49086008E00A480949A7
:1025F0000968445407480068401C0649086040F2D6
:102600002551024800F062F810BD000000100140A2
:10261000280000202C0000200C09002010B588B0F4
:10262000044601211020FFF795F901210846FFF724
:1026300061F9072209212348FEF734FB07220A210A
:102640002048FEF72FFB4FF4C060069002208DF863
:102650001C0000208DF81E0002208DF81D000020B7
:102660008DF81F0006A91748FEF7D4FA029400203F
:10267000ADF80C00ADF80E00ADF810000C20ADF870
:1026800012000020ADF8140002A90F4800F096F8DF
:10269000012240F225510C4800F06AF825208DF8FF
:1026A000040000208DF805008DF8060001208DF84B
:1026B000070001A8FEF768FC0121034800F015F8A7
:1026C00008B010BD000002400010014010B500220B
:1026D000002340F66A14A14200D100BF0A1201246F
:1026E0009440A3B2DC43048010BD21B1828942F43E
:1026F0000052828104E082894DF6FF731A40828184
:10270000704702460020B1F5007F00D100BF13885A
:102710000B400BB1012000E00020704770B502466D
:10272000002400230025002040F66A16B14200D1A3
:1027300000BFC1F3421501F01F03012606FA03F39F
:10274000012D02D19689334006E0022D02D1168A6E
:10275000334001E0968A33400C12012606FA04F455
:102760001688344013B10CB1012000E0002070BD88
:10277000F0B50346002400260025002040F66A1725
:10278000B94200D100BF1846C1F3421401F01F0640
:10279000012707FA06F5012C01D10C3004E0022CC8
:1027A00001D1103000E014301AB107682F430760E0
:1027B00002E00768AF430760F0BD00002DE9FF4766
:1027C00005460E460024A14600BFA046B08900B1D0
:1027D00000BF2C8A24F44054F08804432C82AC8936
:1027E00041F20C608443B088318908437189084301
:1027F0000443AC81AC8A24F44074B0890443AC82B5
:102800006846FFF7C7F82048854202D01F48854236
:1028100002D1DDF80C9001E0DDF80890A88900F401
:10282000004040B109EBC90000EB091031684900D4
:10283000B0FBF1F707E009EBC90000EB09103168C4
:102840008900B0FBF1F76420B7FBF0F00401200928
:10285000642101FB1078A88900F4004040B13220C7
:1028600000EBC800B0FBF1F000F00700044308E003
:10287000322000EB08106421B0FBF1F000F00F00F3
:1028800004432C81BDE8FF87001001400014014083
:1028900001468888C0F308007047C1F308028280AF
:1028A000704700000FB4054B10B503A9044A029805
:1028B00000F02CF810BC5DF814FB0000152F000888
:1028C000080900200FB4084B10B504A902AA039808
:1028D00000F01CF8044602A9002000F0B8F92046D8
:1028E00010BC5DF814FB00004F2C000802E008C883
:1028F000121F08C1002AFAD170477047002001E07A
:1029000001C1121F002AFBD1704700002DE9FF4FC3
:102910008BB088460546002606E025280BD0DDE969
:102920000D1290476D1C761C28780028F5D10FB049
:102930003046BDE8F08F0024A146A2460122AE49F0
:1029400000E0044315F8013F203B02FA03F008427F
:10295000F7D128782A2810D06FF02F022878A0F11C
:102960003001092915D809EB890102EB410144F036
:10297000020400EB01096D1CF0E758F8041B5FEA44
:10298000010903D544F40054C9F1000944F00204DC
:102990006D1C28782E2817D115F8010F44F0040477
:1029A0002A280ED06FF02F022878A0F130010929D3
:1029B0000AD80AEB8A0102EB410100EB010A6D1C07
:1029C000F2E758F804AB6D1C28786C280FD006DCB1
:1029D0004C2817D068280DD06A2814D104E0742838
:1029E00010D07A280FD10DE044F400140AE044F42A
:1029F000801401E044F440146978814202D104F566
:102A000080146D1C6D1C2878692865D006DC0028B0
:102A10008DD0632827D0642806D15DE06E2808D0C9
:102A200073282AD0752877D0DDE90D129047761CDF
:102A3000E0E0C4F30250022809D003280DD0D8F8F2
:102A4000001004280DD00E6008F10408D2E0D8F878
:102A50000010F217C1E90062F6E7D8F800100E8006
:102A6000F2E70E70F0E718F8041B8DF80010002054
:102A70008DF80100EB46012003E058F804BB4FF04D
:102A8000FF3061074FF0000701D40AE07F1C574573
:102A90000DDA8742FADB1BF807100029F6D106E0B1
:102AA0007F1C8742FCDB1BF807100029F8D1DDE909
:102AB0000D23A9EB07008146214600F0B1F8304410
:102AC000C61904E0DDE90D121BF8010B90477F1ECB
:102AD000F8D22146484688E058F8040BC4F3025166
:102AE0004FF00A0B032900D100B2042900D140B2F3
:102AF000002802DA40422D2102E0210505D52B21D4
:102B00008DF82410012104E006E0E10710D0202117
:102B1000F6E708AF089113E058F8040BC4F302512C
:102B20004FF00A0B032900D180B2042900D1C0B2B2
:102B30000021EEE75946FDF743FB303107F8011D50
:102B40000028F7D1ADEB070000F1200B600702D59C
:102B500024F4803401E04FF0010ADA4502DDAAEBEB
:102B60000B0000E00020824600EB0B0108980144B6
:102B7000A9EB01000A90E00306D4DDE90D2321460C
:102B80000A9800F04DF806444FF0000908E009A942
:102B900011F80900DDE90D12904709F10109761CD1
:102BA00008998945F3DBE0030CD5DDE90D232146C7
:102BB0000A9800F035F8064404E0DDE90D123020F3
:102BC0009047761CBAF10001AAF1010AF5DC05E094
:102BD000DDE90D1217F8010B9047761CBBF10001DF
:102BE000ABF1010BF4DC0A982146DDE90D2300F07E
:102BF00005F806446D1C97E6092801002DE9F0410F
:102C0000044600251E461746880404D405E03946CC
:102C10002020B0476D1C641EF9D52846BDE8F08120
:102C20002DE9F041044600251E469046C80301D513
:102C3000302700E02027880404D505E041463846C7
:102C4000B0476D1C641EF9D52846BDE8F0810A68BE
:102C5000531C0B60107070471D480078401C1C49C5
:102C600008701C480078022806D1084600781C2805
:102C70002DDD012008702AE016480078012817D0C1
:102C800014480078032813D01248007805280FD084
:102C90001048007807280BD00E480078082807D085
:102CA0000C4800780A2803D00A4800780C2807D17D
:102CB000074800781F280ADD01200549087006E052
:102CC000034800781E2802DD012001490870704782
:102CD000130000201200002005480078401C044921
:102CE000087008460078182801DD00200870704739
:102CF0001500002005480078401C0449087008466B
:102D000000783B2801DD0020087070471600002085
:102D10000A480078401C09490870012008490870D9
:102D2000064800780C2807DD06480088401C054945
:102D3000088001200149087070470000120000203F
:102D4000130000201000002005480078401C0449B2
:102D50000870044800783B2801DD002008707047A7
:102D6000170000201600002019480078401E18495E
:102D7000087008460078012829DA164800780228E9
:102D800002D11C20087022E012480078012817D0D8
:102D900010480078032813D00E48007805280FD07B
:102DA0000C48007807280BD00A480078082807D07C
:102DB000084800780A2803D0064800780C2803D178
:102DC0001F200349087002E01E2001490870704767
:102DD000130000201200002005480078401E04491E
:102DE000087008460078002801DA1820087070473B
:102DF0001500002005480078401E04490870084668
:102E00000078002801DA3B20087070471600002087
:102E100007480078401E06490870012005490870DF
:102E200003480078012802DA0C2001490870704735
:102E3000120000201300002005480078401E0449BD
:102E4000087008460078002801DA3B2008707047B7
:102E50001700002010B5094A106005E04FF4164134
:102E600000E0491E0029FCDC044A13681268521E67
:102E7000024C2260002BF1D110BD00002000002088
:102E800040F6412141430122C2EBC1014FF0E02253
:102E90005161002191611146096941F001011161FF
:102EA00006E04FF0E021096901F4803101B100E052
:102EB000F7E700BF4FF0E021096921F001014FF071
:102EC000E0221161002191617047C0EBC00101EB6C
:102ED0004101491E4FF0E0225161002191611146EC
:102EE000096941F00101116106E04FF0E021096933
:102EF00001F4803101B100E0F7E700BF4FF0E021BD
:102F0000096921F001014FF0E02211610021916176
:102F10007047000070B504460D4600BF40210548CB
:102F2000FFF7EFFB0028F9D0E1B20248FFF7B5FC4C
:102F3000204670BD00100140F0B5034614466425DC
:102F4000B3FBF5F5EAB2032902DA01F10C05E9B2A7
:102F50004E1C1A277E430A2796FBF7F6D71702EB7B
:102F6000977703EB930C0CEBA7074FF0020C0CFBCD
:102F700012773E442644761EF0B2072590FBF5F604
:102F800005FB1605E8B2851D072695FBF6F706FB3F
:102F900017556D1CE8B2F0BD00BF40F2E574062580
:102FA000152600BF00BF4FF4A060FEF729F86FF0B0
:102FB0000400FEF743FFFDF74DFFFDF7BBFEFDF7F5
:102FC00053F9FDF791F94FF4E130FFF727FB1A4869
:102FD0000068002209211520FEF750FD0A22022177
:102FE0001120FEF745FE324629462046FFF7A4FF92
:102FF00007463B46324629462046FEF7DBFDFFF7F3
:103000002BF8FFF7C3F8FFF71BF9FFF75FF9FDF7A0
:10301000D1FA01210948FFF788F9FEF7BBFAFDF75D
:10302000F9FF01210648FFF780F94FF48071054848
:10303000FDF75BFE00BFFEE70C28004000080040E3
:10304000004001400014024010B50246012000E09B
:1030500050430B1EA1F10104E1B2F9D110BD0000F3
:10306000F0B504460D4616461F460E490968C1F3E1
:103070000740FDF74AFA20700A490968C1F30420A5
:10308000FDF743FA28700749096801F03F00FDF792
:103090003CFA307003490968C1F34230FDF735FA54
:1030A0003870F0BD0428004070B504460D46164641
:1030B0000A490968C1F30540FDF727FA207007495E
:1030C0000968C1F30620FDF720FA28700349096852
:1030D00001F07F00FDF719FA307070BD0028004044
:1030E0000000000000000000002F000000000700AA
:1030F000070000147F147F1400242A7F2A12006224
:1031000064081323003649552250000005030000CF
:1031100000001C224100000041221C000014083E57
:1031200008140008083E0808000000A0600000081D
:103130000808080800006060000000201008040271
:10314000003E5149453E0000427F4000004261512F
:103150004946002141454B31001814127F100027C9
:1031600045454539003C4A4949300001710905038C
:1031700000364949493600064949291E00003636BD
:103180000000000056360000000814224100001420
:1031900014141414000041221408000201510906FD
:1031A00000324959513E007C1211127C007F49497E
:1031B0004936003E41414122007F4141221C007FAF
:1031C00049494941007F09090901003E4149497ABD
:1031D000007F0808087F0000417F41000020404137
:1031E0003F01007F08142241007F40404040007FA3
:1031F000020C027F007F0408107F003E4141413EE7
:10320000007F09090906003E4151215E007F09192E
:1032100029460046494949310001017F0101003F2B
:103220004040403F001F2040201F003F4038403FAB
:10323000006314081463000708700807006151490F
:10324000454300007F41410000552A552A550000A2
:1032500041417F0000040201020400404040404020
:10326000000001020400002054545478007F4844B8
:10327000443800384444442000384444487F0038EF
:103280005454541800087E0901020018A4A4A47C18
:10329000007F080404780000447D400000408084E2
:1032A0007D00007F102844000000417F4000007C2A
:1032B00004180478007C0804047800384444443836
:1032C00000FC242424180018242418FC007C080482
:1032D000040800485454542000043F444020003C5B
:1032E0004040207C001C2040201C003C4030403CE2
:1032F000004428102844001CA0A0A07C0044645472
:103300004C441414141414140000000000000000B5
:103310000000000000000000000000F800000000B5
:10332000000000333000000000100C06100C0600F6
:10333000000000000000000040C07840C07840005D
:10334000043F04043F040400007088FC08300000BF
:10335000001820FF211E0000F008F000E018000017
:1033600000211C031E211E0000F0088870000000D0
:103370001E2123241927211010160E000000000022
:103380000000000000000000000000E0180402003F
:10339000000000071820400000020418E0000000B0
:1033A0000040201807000000404080F080404000AE
:1033B0000202010F01020200000000F00000000004
:1033C0000101011F010101000000000000000000D8
:1033D00080B070000000000000000000000000004D
:1033E00000010101010101010000000000000000D6
:1033F0000030300000000000000000008060180471
:10340000006018060100000000E010080810E0004D
:10341000000F102020100F00001010F80000000016
:103420000020203F2020000000700808088870005D
:1034300000302824222130000030088888483000DD
:103440000018202020110E000000C02010F80000FD
:1034500000070424243F240000F808888808080096
:103460000019212020110E0000E0108888180000AB
:10347000000F112020110E0000380808C83808007D
:103480000000003F000000000070880808887000FD
:10349000001C222121221C0000E010080810E0007E
:1034A0000000312222110F00000000C0C000000007
:1034B000000000303000000000000080000000002C
:1034C0000000806000000000000080402010080024
:1034D00000010204081020004040404040404000ED
:1034E00004040404040404000008102040800000C8
:1034F0000020100804020100007048080808F000CD
:103500000000003036010000C030C828E810E0009C
:103510000718272423140B000000C038E000000027
:10352000203C23020227382008F888888870000091
:10353000203F202020110E00C03008080808380065
:10354000071820202010080008F808080810E000DC
:10355000203F202020100F0008F88888E80810007D
:10356000203F20202320180008F88888E808100051
:10357000203F200003000000C03008080838000089
:1035800007182020221E020008F808000008F8088A
:10359000203F210101213F20000808F80808000011
:1035A0000020203F2020000000000808F808080044
:1035B000C08080807F00000008F888C028180800BC
:1035C000203F20012638200008F8080000000000F5
:1035D000203F20202020300008F8F800F8F80800EC
:1035E000203F003F003F200008F830C00008F808E6
:1035F000203F200007183F00E01008080810E000F6
:103600000F10202020100F0008F808080808F0000C
:10361000203F210101010000E01008080810E0002F
:103620000F18242438504F0008F8888888887000C4
:10363000203F2000030C3020007088080808380064
:103640000038202121221C00180808F8080818005A
:103650000000203F2000000008F808000008F808DB
:10366000001F202020201F000878880000C838088C
:10367000000007380E010000F80800F80008F80004
:10368000033C0700073C030008186880806818089E
:1036900020302C03032C30200838C800C83808001C
:1036A0000000203F2000000010080808C83808006B
:1036B0002038262120201800000000FE020202000F
:1036C0000000007F40404000000C30C000000000BF
:1036D000000000010638C00000020202FE000000E7
:1036E000004040407F00000000000402020204008D
:1036F00000000000000000000000000000000000CA
:1037000080808080808080800002020400000000B1
:1037100000000000000000000000808080800000A9
:103720000019242222223F2008F800808000000097
:10373000003F112020110E0000000080808000005A
:10374000000E112020201100000000808088F80069
:10375000000E112020103F2000008080808000009B
:10376000001F222222221300008080F088888818FF
:103770000020203F2020000000008080808080000A
:10378000006B94949493600008F80080808000009F
:10379000203F210000203F2000809898000000007A
:1037A0000020203F202000000000008098980000AA
:1037B00000C08080807F000008F8000080808000CA
:1037C000203F24022D302000000808F800000000EF
:1037D0000020203F202000008080808080808000AA
:1037E000203F20003F20003F80800080808000003C
:1037F000203F210000203F200000808080800000CA
:10380000001F202020201F008080008080000000FA
:1038100080FFA12020110E00000000808080800029
:10382000000E112020A0FF8080808000808080001A
:1038300020203F2120000100000080808080800047
:103840000033242424241900008080E080800000BC
:103850000000001F20200000808000000080800009
:10386000001F202020103F2080808000008080806A
:1038700000010E30080601008080008000808080FA
:103880000F300C030C300F0000808000808080001F
:103890000020312E0E31200080808000008080804A
:1038A00080818E70180601000080808080808000FA
:1038B0000021302C2221300000000000807C020218
:1038C00000000000003F404000000000FF0000003A
:1038D00000000000FF0000000002027C80000000E9
:1038E0000040403F00000000000601010202040405
:1038F00000000000000000000000000000000000C8
:10390000000000000000000028390008000000202E
:103910000C09000010020008803C00080C0900207F
:1039200064040000FC28000801180316285A001639
:103930001314283C0A630A8080EE888888E88F0880
:103940008878484E40C0167F2424247F00081681C2
:1039500040300F304180051701E21CE037804020E5
:10396000100C030E10030C304080402C10109001FE
:103970000009121010FF10101116101808206020F6
:103980003F101010400D10102040F8601D82828200
:10399000FE0449060911A01A80B9510217FF1F1829
:1039A0001610D0B897840B1192947F11080D112036
:1039B000108C838041462810284443C0114FFE02DA
:1039C00022428272050213FE2FFF100806010E0527
:1039D00004124E807F19DB1809FF10900888888830
:1039E000FF04021108080F100444827F0180804008
:1039F000432C102846818018094040484848C87820
:103A00004F060515484840400009150312122222AE
:103A1000528A06141060802AFFA8210312C0301FAA
:103A200040404043407F061C7F424106094FC02969
:103A300041080B1110D030FF30D0121C10101F3D68
:103A4000080402019E0D1101020408211116FE2234
:103A50002222FE0712FE828292A29E100880601F20
:103A60000242827F0F11FF402F102C438011000B68
:103A70001490884C57A42454548C84180801018055
:103A800042221A07441D423E01018AF9E1000D1449
:103A9000E4242CB4252624B42C24E404180AFF02C0
:103AA000011E1212121E4186011519BB390102179F
:103AB000FE4BFF40010214FFCA800101338A080156
:103AC0000113CA100101128B048401021204CA20DE
:103AD0000101127DFC0404040401132D7F2824231A
:103AE0003A0613212222227F1F02424242C27E0551
:103AF000051242C202021A40012B7847061B407F82
:103B0000040915A00C1621222CA0364020100C030D
:103B1000061501020418601EBE2A2A2AEA040215AC
:103B20003E1C444249012A7F050A10417F211008AA
:103B300004FF242424FF041AFEE00212FE000F12E8
:103B400088482F090919AF48300F0242827F4E8002
:103B50008080BEA2011ABE0C0114000A15060504DD
:103B600004044484443C1D2018C744012AFC050A6F
:103B700011049F1C040407042B04FF050A110421EF
:103B80002129BA39010911BF111B8040BA39010935
:103B900013BF111D1060028C432A920109124018B4
:103BA0000A04047E01407E42427E020C14427E40A2
:103BB00040493F091740080B104448507F40407F60
:103BC00050484440212809FC242424FC25262408AC
:103BD0000910E008101040308F80844C55252525B1
:103BE000554C80808020080E1040424458C0407FD1
:103BF00040C05048464060378080402018071B3F37
:103C000040010211781602E222223E080910809E2D
:103C10009292F292929E6011000F114382423E40B6
:103C2000474444447F444454E708101012EAAFAAC2
:103C3000EA0FFA02888C5724548C84601E02EAAA88
:103C4000AAAB0219010411EA020217101010FF10AA
:103C500090000812FE82828292A29E260444827FF5
:103C600001080811FF80432C102C43A0013FDAFF0C
:103C700001092E20612D01020304044506070809ED
:040000050800018965
:00000001FF
